:100000000C942A000C9447000C9447000C94470071
:100010000C9447000C9447000C9447000C94470044
:100020000C9447000C9447000C9447000C94470034
:100030000C9447000C9447000C9447000C94470024
:100040000C9447000C9447000C9447000C94470014
:100050000C94470011241FBECFE5D8E0DEBFCDBF12
:1000600012E0A0E6B0E0E8EDF5E302C005900D92E5
:10007000AA3CB107D9F712E0AAECB2E001C01D9288
:10008000AC3CB107E1F70E94F4180C94EA1A0C9406
:100090000000EF92FF920F931F937B018C0120E0F1
:1000A00030E040E05FE40E94490388238CF0C801FF
:1000B000B70120E030E040E05FE40E94C1010E940F
:1000C000A9039B01AC01205030404040504806C07D
:1000D000C801B7010E94A9039B01AC01B901CA0183
:1000E0001F910F91FF90EF900895A0E0B0E0EBE733
:1000F000F0E00C949E1ADC012B01FA019C919230E5
:1001000008F439C1EB018881823008F433C194309E
:1001100069F4843009F02FC111969C91119789815F
:10012000981709F428C1A2ECB2E025C1843009F483
:1001300021C18230A9F4923009F01DC19A01AD01AC
:1001400088E0EA010990AE01E90109929E0181501F
:10015000C1F7E201898111969C918923818308C1AD
:10016000923009F407C112962D903C901397EB0141
:100170008A819B811496AD90BD90CD90DC901797AD
:10018000EC80FD800E811F819101281B390BB90184
:1001900037FF04C066277727621B730B6032710537
:1001A0000CF061C0121613066CF537014801062EDB
:1001B00004C096948794779467940A94D2F721E0C8
:1001C00030E040E050E004C0220F331F441F551FB1
:1001D0006A95D2F721503040404050402E213F21B7
:1001E00040235123211531054105510521F021E01E
:1001F00030E040E050E079018A01E628F72808293C
:1002000019293CC0232BD1F1260E371E350146019A
:10021000062E04C096948794779467940A94D2F734
:1002200021E030E040E050E004C0220F331F441FC3
:10023000551F6A95D2F721503040404050402A2146
:100240003B214C215D21211531054105510521F04E
:1002500021E030E040E050E059016A01A628B728CB
:10026000C828D9280BC0821593052CF01C01AA249C
:10027000BB24650103C0EE24FF24870111969C91E5
:10028000D20111968C91981709F445C0992339F041
:10029000A80197012A193B094C095D0906C0A6016E
:1002A00095012E193F09400B510B57FD08C01182D3
:1002B0003382228224833583468357831DC081E0A5
:1002C00081833382228288279927DC01821B930B4A
:1002D000A40BB50B84839583A683B7830DC0220F2F
:1002E000331F441F551F24833583468357838281E0
:1002F000938101979383828324813581468157813D
:10030000DA01C9010197A109B1098F5F9F4FAF4F72
:10031000BF4328F30BC0918333822282EA0CFB1C7B
:100320000C1D1D1DE482F5820683178383E0808304
:10033000248135814681578157FF1AC0C901AA27F8
:1003400097FDA095BA2F81709070A070B0705695EF
:10035000479537952795822B932BA42BB52B848318
:100360009583A683B7838281938101969383828349
:10037000DF0101C0D201CD01CDB7DEB7E2E10C94BF
:10038000BA1AA0E2B0E0E7ECF1E00C94AA1A698393
:100390007A838B839C832D833E834F835887E9E048
:1003A000EE2EF12CEC0EFD1ECE010196B7010E943F
:1003B000D2048E010F5E1F4FCE010596B8010E9438
:1003C000D2048A8991E089278A8BC701B801AE01DE
:1003D000475E5F4F0E9475000E94FD03A096E6E015
:1003E0000C94C61AA0E2B0E0E8EFF1E00C94AA1A6F
:1003F00069837A838B839C832D833E834F835887C5
:10040000F9E0EF2EF12CEC0EFD1ECE010196B701A6
:100410000E94D2048E010F5E1F4FCE010596B801D7
:100420000E94D204C701B801AE01475E5F4F0E942F
:1004300075000E94FD03A096E6E00C94C61AA0E2A7
:10044000B0E0E5E2F2E00C949E1A69837A838B8334
:100450009C832D833E834F835887CE010196BE0136
:10046000675F7F4F0E94D204CE010596BE016F5E8A
:100470007F4F0E94D2049985923088F0898982301A
:10048000C8F0943019F4823051F404C0843029F457
:10049000923081F482EC92E0C6C0923049F420E0C0
:1004A0009A858A89981321E02A87CE010996BBC0D4
:1004B000823049F420E09A858A89981321E02A8BBA
:1004C000CE014196B0C02D843E844F8458886D88FB
:1004D0007E888F88988CEE24FF248701AA24BB2471
:1004E000650140E050E060E070E0E0E0F0E0C10174
:1004F00081709070892BE9F0E60CF71C081D191D1E
:100500009A01AB012A0D3B1D4C1D5D1D80E090E062
:10051000A0E0B0E0E614F7040805190520F481E036
:1005200090E0A0E0B0E0BA01A901480F591F6A1F8E
:100530007B1FAA0CBB1CCC1CDD1C97FE08C081E0F5
:1005400090E0A0E0B0E0A82AB92ACA2ADB2A3196B6
:10055000E032F10549F0660C771C881C991C569412
:10056000479437942794C3CFFA85EA892B893C892D
:100570008B859C85280F391F2E5F3F4F17C0CA01FE
:1005800081709070892B61F016950795F794E79428
:1005900080E090E0A0E0B0E8E82AF92A0A2B1B2BC3
:1005A00076956795579547952F5F3F4F77FDE7CF36
:1005B0000CC0440F551F661F771F17FD4160EE0CDE
:1005C000FF1C001F111F21503040403090E05907A0
:1005D00090E0690790E4790760F32B8F3C8FDB0193
:1005E000CA018F779070A070B07080349105A1051A
:1005F000B10561F447FD0AC0E114F10401051105DC
:1006000029F0405C5F4F6F4F7F4F40781A8EFE1786
:1006100011F081E08A8F4D8F5E8F6F8F78A383E01A
:10062000898FCE0149960E94FD03A096E2E10C94C9
:10063000BA1AA8E1B0E0EFE1F3E00C94AA1A6983DA
:100640007A838B839C832D833E834F83588789E0F5
:10065000E82EF12CEC0EFD1ECE010196B7010E9492
:10066000D2048E010F5E1F4FCE010596B8010E9485
:10067000D2048985823040F08989823028F0C70110
:10068000B8010E944A0501C08FEF6896E6E00C941D
:10069000C61AA8E1B0E0EFE4F3E00C94AA1A69836B
:1006A0007A838B839C832D833E834F83588789E095
:1006B000E82EF12CEC0EFD1ECE010196B7010E9432
:1006C000D2048E010F5E1F4FCE010596B8010E9425
:1006D000D2048985823040F08989823028F0C701B0
:1006E000B8010E944A0501C08FEF6896E6E00C94BD
:1006F000C61AA8E1B0E0EFE7F3E00C94AA1A698308
:100700007A838B839C832D833E834F83588789E034
:10071000E82EF12CEC0EFD1ECE010196B7010E94D1
:10072000D2048E010F5E1F4FCE010596B8010E94C4
:10073000D2048985823040F08989823028F0C7014F
:10074000B8010E944A0501C081E06896E6E00C9479
:10075000C61AACE0B0E0EFEAF3E00C94AE1A69839D
:100760007A838B839C83CE010196BE016B5F7F4FA2
:100770000E94D2048D81823061F1823050F1843048
:1007800021F48E81882351F12EC02F81388537FDC9
:1007900020C06E812F3131051CF06623F9F023C093
:1007A0008EE190E0821B930B29853A854B855C8511
:1007B00004C056954795379527958A95D2F76623B5
:1007C000B1F050954095309521953F4F4F4F5F4F79
:1007D0000EC020E030E040E050E009C02FEF3FEFD6
:1007E0004FEF5FE704C020E030E040E050E8B9019F
:1007F000CA012C96E2E00C94CA1ADF92EF92FF92A3
:100800000F931F93FC01E480F58006811781D1804E
:100810008081823048F480E090E0A0E1B0E0E82AF6
:10082000F92A0A2B1B2BA5C0843009F49FC0823003
:1008300021F4EE24FF24870105C0E114F104010531
:10084000110519F4E0E0F0E096C0628173819FEF3A
:10085000623879070CF05BC022E83FEF261B370BAC
:100860002A3131052CF020E030E040E050E02AC091
:10087000B801A701022E04C0769567955795479554
:100880000A94D2F781E090E0A0E0B0E004C0880FC5
:10089000991FAA1FBB1F2A95D2F70197A109B10979
:1008A0008E219F21A023B1230097A105B10521F03E
:1008B00081E090E0A0E0B0E09A01AB01282B392B59
:1008C0004A2B5B2BDA01C9018F779070A070B07052
:1008D00080349105A105B10539F427FF09C0205CDA
:1008E0003F4F4F4F5F4F04C0215C3F4F4F4F5F4F13
:1008F000E0E0F0E02030A0E03A07A0E04A07A0E402
:100900005A0710F0E1E0F0E079018A0127C0603871
:10091000710564F5FB01E158FF4FD801C7018F77DE
:100920009070A070B07080349105A105B10539F4C4
:10093000E7FE0DC080E490E0A0E0B0E004C08FE3EB
:1009400090E0A0E0B0E0E80EF91E0A1F1B1F17FFA1
:1009500005C016950795F794E794319687E01695AC
:100960000795F794E7948A95D1F705C0EE24FF2404
:100970008701EFEFF0E06E2F679566276795902F60
:100980009F77D794DD24D7948E2F8695492F462BB9
:10099000582F5D29B701CA011F910F91FF90EF9069
:1009A000DF900895FC01DB01408151812281622F9B
:1009B0006F7770E0221F2227221F9381892F880FD3
:1009C000822B282F30E0991F9927991F11969C930D
:1009D000119721153105A9F54115510561057105DD
:1009E00011F482E037C082E89FEF13969C938E93B8
:1009F00012979A01AB0167E0220F331F441F551F66
:100A00006A95D1F783E08C930DC0220F331F441FEA
:100A1000551F12968D919C911397019713969C9355
:100A20008E931297203080E0380780E0480780E4FA
:100A3000580758F314962D933D934D935C93179755
:100A400008952F3F310579F4411551056105710570
:100A500019F484E08C93089564FF03C081E08C93C3
:100A600012C01C9210C02F57304013963C932E9307
:100A7000129783E08C9387E0440F551F661F771F02
:100A80008A95D1F7706414964D935D936D937C9322
:100A9000179708951F93DC01FB019C91923008F495
:100AA00047C08081823008F443C0943051F41196DD
:100AB0001C91843099F58181682F70E0611B710968
:100AC0003FC0843021F0923031F48230B9F181811D
:100AD000882389F12DC011961C9111978230F1F075
:100AE00081811817D9F412962D913C911397828128
:100AF00093818217930794F028173907BCF0149656
:100B00008D919D910D90BC91A02D248135814681C0
:100B10005781281739074A075B0718F4112341F05A
:100B20000AC082179307A407B50740F4112319F0F0
:100B300061E070E005C06FEF7FEF02C060E070E041
:100B4000CB011F9108951F93DF93CF93CDB7DEB7ED
:100B50006F970FB6F894DEBF0FBECDBF9F8F8E8FFD
:100B600081E08B8B1A8A8AE0FE017496DF01982F50
:100B70001D929A95E9F7198A13C00E94C6168A8BAE
:100B80008A898D3081F08989282F30E0CE01449602
:100B9000FC01E20FF31F8A89808389898F5F898B2B
:100BA00089898A3050F389898A3008F0B7C08989E9
:100BB0008F87198AAAC0188A97C08889282F30E0A1
:100BC000CE014496FC01E20FF31F10818989882F22
:100BD00090E09C01220F331FC901880F991F880FD5
:100BE000991F280F391F8889882F90E0820F931F43
:100BF0008C599F4F0E94D51A181709F07AC080E0CF
:100C000090E0A0E2B1E48B879C87AD87BE876B85BF
:100C10007C858D859E8520E030E04AEF54E40E947B
:100C20001F02DC01CB018F839887A987BA876F8168
:100C3000788589859A8520E030E040E85FE30E946E
:100C4000790388232CF481E090E09E838D833FC05C
:100C50006F81788589859A8520E03FEF4FE757E4DB
:100C60000E94190318164CF56B857C858D859E8531
:100C700020E030E040E251E40E941F02DC01CB01A1
:100C8000BC01CD010E944900DC01CB019E838D8314
:100C90000FC088EC90E09C838B838B819C810197B3
:100CA000F1F79C838B838D819E8101979E838D8339
:100CB0008D819E81009769F714C06F817885898541
:100CC0009A850E944900DC01CB019E838D838D8132
:100CD0009E819A83898389819A810197F1F79A830A
:100CE000898388898F5F888B98898F85981708F406
:100CF00064CF98898F85981729F4EE8DFF8D8989A7
:100D0000808307C089898F5F898B89898A3008F43D
:100D100052CF89898A3019F41B8A01C01B8A8B89BA
:100D20006F960FB6F894DEBF0FBECDBFCF91DF91A7
:100D30001F9108951F93DF93CF93CDB7DEB72F9701
:100D40000FB6F894DEBF0FBECDBF8F8781E08C83D6
:100D50001B828AE0FE013596DF01982F1D929A953D
:100D6000E9F71A8213C00E94C6168B838B818D30DF
:100D700081F08A81282F30E0CE010596FC01E20F38
:100D8000F31F8B8180838A818F5F8A838A818A3077
:100D900050F38A818A3098F58A8189831A8222C029
:100DA0008A81282F30E0CE010596FC01E20FF31F67
:100DB00010818A81482F50E08F85882F90E09C0118
:100DC000220F331FC901880F991F880F991F820FA7
:100DD000931F840F951F0E94D51A181739F48A8122
:100DE0008F5F8A839A8189819817D0F29A8189814D
:100DF000981719F481E08C8303C01C8201C01C8207
:100E00008C812F960FB6F894DEBF0FBECDBFCF9169
:100E1000DF911F910895DF93CF9300D00F92CDB74C
:100E2000DEB78B831A82198220C00E94C6168A837D
:100E30008A818D30C1F18B81882F90E09C01220F37
:100E4000331FC901880F991F880F991F280F391F59
:100E50008981882F90E0820F931F8C599F4F6A8160
:100E60000E94DD1A89818F5F898389818A30E8F247
:100E70001AC08B81882F90E09C01220F331FC9017B
:100E8000880F991F880F991F280F391F8981882F74
:100E900090E0820F931F8C599F4F60E00E94DD1AF3
:100EA00089818F5F898389818A3018F30F900F9031
:100EB0000F90CF91DF910895DF93CF9300D00F92E1
:100EC000CDB7DEB78B831A8219821EC00E94C61668
:100ED0008A838A818D30A1F18981482F50E08B81EE
:100EE000882F90E09C01220F331FC901880F991FA2
:100EF000880F991F820F931F840F951F6A810E948C
:100F0000DD1A89818F5F898389818A30F8F218C060
:100F10008981482F50E08B81882F90E09C01220F1F
:100F2000331FC901880F991F880F991F820F931FC4
:100F3000840F951F60E00E94DD1A89818F5F89838D
:100F400089818A3028F30F900F900F90CF91DF9115
:100F50000895DF93CF93CDB7DEB72D970FB6F894F2
:100F6000DEBF0FBECDBFCE0104969A878987E0E62B
:100F7000F0E0FC87EB87F5E0FD87EB85FC850080E2
:100F80008B859C8501969C878B87E985FA850082F5
:100F900089859A8501969A8789879D8591509D8735
:100FA000ED85EE2351F7198249C01A8225C08A8146
:100FB000282F30E0CE010496FC01E20FF31F808160
:100FC0008B838B818823A1F18A81482F50E089810E
:100FD000882F90E09C01220F331FC901880F991FB1
:100FE000880F991F820F931F840F951F6B810E949A
:100FF000DD1A8A818F5F8A838A818A30C0F218C0A5
:101000008A81482F50E08981882F90E09C01220F2F
:10101000331FC901880F991F880F991F820F931FD3
:10102000840F951F60E00E94DD1A8A818F5F8A839A
:101030008A818A3028F389818F5F898389818A3008
:1010400008F4B3CF2D960FB6F894DEBF0FBECDBF18
:10105000CF91DF910895DF93CF93CDB7DEB72D9772
:101060000FB6F894DEBF0FBECDBFCE0104969A87AF
:101070008987E5E6F0E0FC87EB87F5E0FD87EB8507
:10108000FC8500808B859C8501969C878B87E985F4
:10109000FA85008289859A8501969A8789879D8538
:1010A00091509D87ED85EE2351F719824DC01A822C
:1010B00027C08A81282F30E0CE010496FC01E20F80
:1010C000F31F80818B838B818823C1F18981882FD5
:1010D00090E09C01220F331FC901880F991F880FD0
:1010E000991F280F391F8A81882F90E0820F931F44
:1010F0008C599F4F6B810E94DD1A8A818F5F8A8392
:101100008A818A30B0F21AC08981882F90E09C01D0
:10111000220F331FC901880F991F880F991F280FAD
:10112000391F8A81882F90E0820F931F8C599F4F1F
:1011300060E00E94DD1A8A818F5F8A838A818A300B
:1011400018F389818F5F898389818A3008F4AFCF52
:101150002D960FB6F894DEBF0FBECDBFCF91DF91B5
:101160000895DF93CF93CDB7DEB727970FB6F894E6
:10117000DEBF0FBECDBF89836A834B838A818830EF
:1011800008F0EAC08B81882309F074C08981282F78
:1011900030E03F832E838E819F818130910559F10C
:1011A0002E813F81223031052CF48E819F81009762
:1011B00069F0D2C02E813F812230310589F18E81C4
:1011C0009F818330910509F440C0C6C0AAE3B0E016
:1011D000EAE3F0E08081482F8A81282F30E081E027
:1011E00090E0022E02C0880F991F0A94E2F78095C2
:1011F00084238C93B1C0A7E3B0E0E7E3F0E0808103
:10120000482F8A81282F30E081E090E0022E02C032
:10121000880F991F0A94E2F7809584238C939CC0D1
:10122000A4E3B0E0E4E3F0E08081482F8A81282F36
:1012300030E081E090E0022E02C0880F991F0A94EE
:10124000E2F7809584238C9387C0A1E3B0E0E1E3CB
:10125000F0E08081482F8A81282F30E081E090E003
:10126000022E02C0880F991F0A94E2F7809584230A
:101270008C9372C08B81813009F06EC08981282FD8
:1012800030E03D832C838C819D818130910549F133
:101290002C813D81223031052CF48C819D81009779
:1012A00061F05AC02C813D812230310571F18C8171
:1012B0009D8183309105E9F14FC0AAE3B0E0EAE3F4
:1012C000F0E08081482F8A81282F30E081E090E093
:1012D000022E02C0880F991F0A94E2F7842B8C9388
:1012E0003BC0A7E3B0E0E7E3F0E08081482F8A81CC
:1012F000282F30E081E090E0022E02C0880F991F75
:101300000A94E2F7842B8C9327C0A4E3B0E0E4E3D3
:10131000F0E08081482F8A81282F30E081E090E042
:10132000022E02C0880F991F0A94E2F7842B8C9337
:1013300013C0A1E3B0E0E1E3F0E08081482F8A81AF
:10134000282F30E081E090E0022E02C0880F991F24
:101350000A94E2F7842B8C9327960FB6F894DEBF9D
:101360000FBECDBFCF91DF910895DF93CF9300D013
:1013700000D0CDB7DEB789836A838981282F30E01A
:101380003C832B838B819C8181309105D1F02B8113
:101390003C81223031052CF48B819C81009761F0D7
:1013A0001EC02B813C812230310581F08B819C81D4
:1013B0008330910581F013C0EAE3F0E08A818083F5
:1013C0000EC0E7E3F0E08A81808309C0E4E3F0E047
:1013D0008A81808304C0E1E3F0E08A8180830F90FA
:1013E0000F900F900F90CF91DF910895DF93CF93DF
:1013F000CDB7DEB727970FB6F894DEBF0FBECDBFCF
:1014000089836A834B838A81883008F0EAC08B81A4
:10141000882309F074C08981282F30E03F832E8310
:101420008E819F818130910559F12E813F8122303B
:1014300031052CF48E819F81009769F0D2C02E81F6
:101440003F812230310589F18E819F818330910562
:1014500009F440C0C6C0ABE3B0E0EBE3F0E080814C
:10146000482F8A81282F30E081E090E0022E02C0D0
:10147000880F991F0A94E2F7809584238C93B1C05A
:10148000A8E3B0E0E8E3F0E08081482F8A81282FCC
:1014900030E081E090E0022E02C0880F991F0A948C
:1014A000E2F7809584238C939CC0A5E3B0E0E5E34C
:1014B000F0E08081482F8A81282F30E081E090E0A1
:1014C000022E02C0880F991F0A94E2F780958423A8
:1014D0008C9387C0A2E3B0E0E2E3F0E08081482F84
:1014E0008A81282F30E081E090E0022E02C0880F30
:1014F000991F0A94E2F7809584238C9372C08B81A4
:10150000813009F06EC08981282F30E03D832C8323
:101510008C819D818130910549F12C813D81223062
:1015200031052CF48C819D81009761F05AC02C818B
:101530003D812230310571F18C819D81833091058F
:10154000E9F14FC0ABE3B0E0EBE3F0E08081482F7E
:101550008A81282F30E081E090E0022E02C0880FBF
:10156000991F0A94E2F7842B8C933BC0A8E3B0E068
:10157000E8E3F0E08081482F8A81282F30E081E085
:1015800090E0022E02C0880F991F0A94E2F7842B84
:101590008C9327C0A5E3B0E0E5E3F0E08081482F1D
:1015A0008A81282F30E081E090E0022E02C0880F6F
:1015B000991F0A94E2F7842B8C9313C0A2E3B0E046
:1015C000E2E3F0E08081482F8A81282F30E081E03B
:1015D00090E0022E02C0880F991F0A94E2F7842B34
:1015E0008C9327960FB6F894DEBF0FBECDBFCF9178
:1015F000DF910895DF93CF9300D000D0CDB7DEB751
:1016000089836A838981282F30E03C832B838B81F7
:101610009C8181309105D1F02B813C8122303105B4
:101620002CF48B819C81009761F01EC02B813C8142
:101630002230310581F08B819C818330910581F0CE
:1016400013C0EBE3F0E08A8180830EC0E8E3F0E0B2
:101650008A81808309C0E5E3F0E08A81808304C049
:10166000E2E3F0E08A8180830F900F900F900F905B
:10167000CF91DF910895DF93CF9300D000D00F92E8
:10168000CDB7DEB78A836B8319828A81282F30E039
:101690003D832C834C815D814130510541F18C812A
:1016A0009D818230910534F42C813D8121153105D5
:1016B00061F052C04C815D814230510551F18C8105
:1016C0009D8183309105B9F147C0E9E3F0E0808165
:1016D000282F30E08B81882F90E0A90102C055951A
:1016E00047958A95E2F7CA018170898335C0E6E3A0
:1016F000F0E08081282F30E08B81882F90E0A901D5
:1017000002C0559547958A95E2F7CA018170898391
:1017100023C0E3E3F0E08081282F30E08B81882F25
:1017200090E0A90102C0559547958A95E2F7CA0154
:101730008170898311C0E0E3F0E08081282F30E0E0
:101740008B81882F90E0A90102C0559547958A9515
:10175000E2F7CA018170898389810F900F900F9001
:101760000F900F90CF91DF910895DF93CF93CDB776
:10177000DEB729970FB6F894DEBF0FBECDBF8983C1
:101780006A834B838B81882309F06FC08981282F5E
:1017900030E039872887888599858130910549F11E
:1017A00028853985223031052CF488859985009764
:1017B00061F0E2C1288539852230310571F18885D3
:1017C000998583309105E9F1D7C1AAE3B0E0EAE356
:1017D000F0E08081482F8A81282F30E081E090E07E
:1017E000022E02C0880F991F0A94E2F7842B8C9373
:1017F000C3C1A7E3B0E0E7E3F0E08081482F8A812E
:10180000282F30E081E090E0022E02C0880F991F5F
:101810000A94E2F7842B8C93AFC1A4E3B0E0E4E335
:10182000F0E08081482F8A81282F30E081E090E02D
:10183000022E02C0880F991F0A94E2F7842B8C9322
:101840009BC1A1E3B0E0E1E3F0E08081482F8A8111
:10185000282F30E081E090E0022E02C0880F991F0F
:101860000A94E2F7842B8C9387C18B81813009F035
:10187000C2C08981282F30E03F832E838E819F81D3
:101880008130910509F43FC02E813F81223031051E
:101890002CF48E819F81009771F06EC12E813F8163
:1018A0002230310509F457C08E819F818330910524
:1018B00009F479C061C1AAE3B0E0EAE3F0E0808115
:1018C000482F8A81282F30E081E090E002C0880F05
:1018D000991F2A95E2F7809584238C93ABE3B0E0BF
:1018E000EBE3F0E08081482F8A81282F30E081E00F
:1018F00090E0022E02C0880F991F0A94E2F78095AB
:1019000084238C9339C1A7E3B0E0E7E3F0E0808162
:10191000482F8A81282F30E081E090E002C0880FB4
:10192000991F2A95E2F7809584238C93A8E3B0E071
:10193000E8E3F0E08081482F8A81282F30E081E0C1
:1019400090E0022E02C0880F991F0A94E2F780955A
:1019500084238C9311C1A4E3B0E0E4E3F0E0808140
:10196000482F8A81282F30E081E090E002C0880F64
:10197000991F2A95E2F7809584238C93A5E3B0E024
:10198000E5E3F0E08081482F8A81282F30E081E074
:1019900090E0022E02C0880F991F0A94E2F780950A
:1019A00084238C93E9C0A1E3B0E0E1E3F0E080811F
:1019B000482F8A81282F30E081E090E002C0880F14
:1019C000991F2A95E2F7809584238C93A2E3B0E0D7
:1019D000E2E3F0E08081482F8A81282F30E081E027
:1019E00090E0022E02C0880F991F0A94E2F78095BA
:1019F00084238C93C1C08B81823009F0BDC0898162
:101A0000282F30E03D832C838C819D81813091058E
:101A100009F43EC02C813D81223031052CF48C81AB
:101A20009D81009771F0A8C02C813D812230310545
:101A300009F455C08C819D818330910509F476C0ED
:101A40009BC0AAE3B0E0EAE3F0E08081482F8A81FE
:101A5000282F30E081E090E002C0880F991F2A957E
:101A6000E2F7809584238C93ABE3B0E0EBE3F0E006
:101A70008081482F8A81282F30E081E090E0022E7B
:101A800002C0880F991F0A94E2F7842B8C9374C0CC
:101A9000A7E3B0E0E7E3F0E08081482F8A81282FB8
:101AA00030E081E090E002C0880F991F2A95E2F7AC
:101AB000809584238C93A8E3B0E0E8E3F0E0808194
:101AC000482F8A81282F30E081E090E0022E02C06A
:101AD000880F991F0A94E2F7842B8C934DC0A4E3DE
:101AE000B0E0E4E3F0E08081482F8A81282F30E0E5
:101AF00081E090E002C0880F991F2A95E2F7809557
:101B000084238C93A5E3B0E0E5E3F0E08081482FE7
:101B10008A81282F30E081E090E0022E02C0880FF9
:101B2000991F0A94E2F7842B8C9326C0A1E3B0E0BE
:101B3000E1E3F0E08081482F8A81282F30E081E0C6
:101B400090E002C0880F991F2A95E2F780958423C0
:101B50008C93A2E3B0E0E2E3F0E08081482F8A8139
:101B6000282F30E081E090E0022E02C0880F991FFC
:101B70000A94E2F7842B8C9329960FB6F894DEBF73
:101B80000FBECDBFCF91DF910895DF93CF93CDB737
:101B9000DEB727970FB6F894DEBF0FBECDBF89839F
:101BA0006A834B838B81813009F06FC08981282F34
:101BB00030E03F832E838E819F818130910549F1F2
:101BC0002E813F81223031052CF48E819F81009738
:101BD00061F0D2C02E813F812230310571F18E81BA
:101BE0009F8183309105E9F1C7C0ABE3B0E0EBE33F
:101BF000F0E08081482F8A81282F30E081E090E05A
:101C0000022E02C0880F991F0A94E2F7842B8C934E
:101C1000B3C0A8E3B0E0E8E3F0E08081482F8A8118
:101C2000282F30E081E090E0022E02C0880F991F3B
:101C30000A94E2F7842B8C939FC0A5E3B0E0E5E320
:101C4000F0E08081482F8A81282F30E081E090E009
:101C5000022E02C0880F991F0A94E2F7842B8C93FE
:101C60008BC0A2E3B0E0E2E3F0E08081482F8A81FC
:101C7000282F30E081E090E0022E02C0880F991FEB
:101C80000A94E2F7842B8C9377C08B81882309F028
:101C900073C08981282F30E03D832C838C819D8106
:101CA0008130910559F12C813D81223031052CF490
:101CB0008C819D81009769F05FC02C813D8122302D
:101CC000310589F18C819D818330910509F440C0F3
:101CD00053C0ABE3B0E0EBE3F0E08081482F8A81B2
:101CE000282F30E081E090E0022E02C0880F991F7B
:101CF0000A94E2F7809584238C933EC0A8E3B0E079
:101D0000E8E3F0E08081482F8A81282F30E081E0ED
:101D100090E0022E02C0880F991F0A94E2F7809586
:101D200084238C9329C0A5E3B0E0E5E3F0E0808153
:101D3000482F8A81282F30E081E090E0022E02C0F7
:101D4000880F991F0A94E2F7809584238C9314C01E
:101D5000A2E3B0E0E2E3F0E08081482F8A81282FFF
:101D600030E081E090E0022E02C0880F991F0A94B3
:101D7000E2F7809584238C9327960FB6F894DEBF04
:101D80000FBECDBFCF91DF910895DF93CF9300D0E9
:101D900000D00F92CDB7DEB78A836B8381E0898351
:101DA0008A81282F30E03D832C834C815D81413036
:101DB000510509F43CC08C819D818230910534F439
:101DC0002C813D812115310571F09CC04C815D81D4
:101DD0004230510509F44FC08C819D8183309105BB
:101DE00009F46DC08FC0ABE3B0E0EBE3F0E08081BD
:101DF000482F8B81282F30E081E090E002C0880FCF
:101E0000991F2A95E2F784278C93EBE3F0E0808119
:101E1000282F30E08B81882F90E0A90102C05595D2
:101E200047958A95E2F7CA01817089836BC0A8E360
:101E3000B0E0E8E3F0E08081482F8B81282F30E08C
:101E400081E090E002C0880F991F2A95E2F784276D
:101E50008C93E8E3F0E08081282F30E08B81882F9D
:101E600090E0A90102C0559547958A95E2F7CA010D
:101E70008170898347C0A5E3B0E0E5E3F0E08081AD
:101E8000482F8B81282F30E081E090E002C0880F3E
:101E9000991F2A95E2F784278C93E5E3F0E080818F
:101EA000282F30E08B81882F90E0A90102C0559542
:101EB00047958A95E2F7CA018170898323C0A2E31E
:101EC000B0E0E2E3F0E08081482F8B81282F30E002
:101ED00081E090E002C0880F991F2A95E2F78427DD
:101EE0008C93E2E3F0E08081282F30E08B81882F13
:101EF00090E0A90102C0559547958A95E2F7CA017D
:101F00008170898389810F900F900F900F900F90AF
:101F1000CF91DF910895DF93CF9300D000D00F923F
:101F2000CDB7DEB78A836B8319828A81282F30E090
:101F30003D832C834C815D814130510571F18C8151
:101F40009D818230910534F42C813D81211531052C
:101F500069F064C04C815D8142305105A1F18C81F2
:101F60009D818330910509F444C058C0E9E3F0E055
:101F70008081282F30E08B81882F90E0A90102C05A
:101F8000559547958A95E2F7CA018170907088232C
:101F900009F444C081E0898341C0E6E3F0E0808138
:101FA000282F30E08B81882F90E0A90102C0559541
:101FB00047958A95E2F7CA0181709070882371F184
:101FC00081E089832BC0E3E3F0E08081282F30E0BB
:101FD0008B81882F90E0A90102C0559547958A957D
:101FE000E2F7CA01817090708823C1F081E0898393
:101FF00015C0E0E3F0E08081282F30E08B81882F4E
:1020000090E0A90102C0559547958A95E2F7CA016B
:1020100081709070882311F081E0898389810F900D
:102020000F900F900F900F90CF91DF910895DF9355
:10203000CF9300D000D0CDB7DEB789836A83898182
:10204000282F30E03C832B838B819C81813091054C
:10205000D1F02B813C81223031052CF48B819C8185
:10206000009761F01EC02B813C812230310581F048
:102070008B819C818330910581F013C0EAE3F0E00D
:102080008A8180830EC0E7E3F0E08A81808309C003
:10209000E4E3F0E08A81808304C0E1E3F0E08A8138
:1020A00080830F900F900F900F90CF91DF91089544
:1020B000DF93CF9300D000D0CDB7DEB789836A839A
:1020C0008981282F30E03C832B838B819C81813058
:1020D0009105D1F02B813C81223031052CF48B818C
:1020E0009C81009761F01EC02B813C81223031051C
:1020F00081F08B819C818330910581F013C0EBE3EB
:10210000F0E08A8180830EC0E8E3F0E08A8180837A
:1021100009C0E5E3F0E08A81808304C0E2E3F0E0F7
:102120008A8180830F900F900F900F90CF91DF9155
:102130000895DF93CF9300D000D0CDB7DEB78A8368
:1021400019828A81282F30E03C832B838B819C81EC
:1021500081309105D1F02B813C81223031052CF466
:102160008B819C81009761F01EC02B813C812230C5
:10217000310581F08B819C818330910581F013C002
:10218000E9E3F0E0808189830EC0E6E3F0E080813E
:10219000898309C0E3E3F0E08081898304C0E0E340
:1021A000F0E08081898389810F900F900F900F90CC
:1021B000CF91DF910895DF93CF93CDB7DEB7AFE531
:1021C000B0E0EFE5F0E0808180688C93CF91DF9103
:1021D0000895DF93CF93CDB7DEB7AFE5B0E0EFE57D
:1021E000F0E080818F778C93CF91DF910895DF931A
:1021F000CF93CDB7DEB762970FB6F894DEBF0FBEB0
:10220000CDBF0E94ED1480E090E0A0E2B2E48B87A5
:102210009C87AD87BE876B857C858D859E8520E0FC
:1022200030E04AEF54E40E941F02DC01CB018F83AF
:102230009887A987BA876F81788589859A8520E0F4
:1022400030E040E85FE30E94790388232CF481E0CA
:1022500090E09E838D833FC06F81788589859A85C4
:1022600020E03FEF4FE757E40E94190318164CF5A2
:102270006B857C858D859E8520E030E040E251E4D1
:102280000E941F02DC01CB01BC01CD010E9449006C
:10229000DC01CB019E838D830FC088EC90E09C8392
:1022A0008B838B819C810197F1F79C838B838D813C
:1022B0009E8101979E838D838D819E81009769F712
:1022C00014C06F81788589859A850E944900DC0158
:1022D000CB019E838D838D819E819A8389838981A1
:1022E0009A810197F1F79A83898381E08F87188A11
:1022F00081E0898B1A8A8F859889A989BA89BC015E
:10230000CD010E94E5110E948E1162960FB6F894DD
:10231000DEBF0FBECDBFCF91DF910895DF93CF9386
:10232000CDB7DEB781E00E941713CF91DF910895FA
:10233000DF93CF930F92CDB7DEB7898389810E9457
:1023400002140F90CF91DF910895DF93CF9300D0C7
:10235000CDB7DEB79A8389830AC0E981FA8180818B
:102360000E94021489819A8101969A838983E98166
:10237000FA818081882389F70F900F90CF91DF91A8
:102380000895DF93CF9300D00F92CDB7DEB78A8345
:102390006B838A81882F90E0002496958795079417
:1023A000969587950794982F802D982F8B81890F6C
:1023B000898389818068898389810E9417130F909E
:1023C0000F900F90CF91DF910895DF93CF93CDB70A
:1023D000DEB727970FB6F894DEBF0FBECDBF6A8376
:1023E0007B838C839D8380E289838981806189835B
:1023F0008C81813019F48981886089838D81813055
:1024000019F489818460898389810E9417138A81E4
:10241000882321F488E00E94171321C08A8181302B
:10242000F1F48B81282F30E03F832E838E819F81B2
:102430008130910569F02E813F812230310561F0B4
:102440008E819F81009759F48CE00E94171307C07A
:102450008FE00E94171303C08EE00E941713279687
:102460000FB6F894DEBF0FBECDBFCF91DF910895B8
:10247000EF92FF920F931F93DF93CF93CDB7DEB709
:1024800029970FB6F894DEBF0FBECDBF6E837F8352
:10249000888799871A821B821C821D8219828E81ED
:1024A0009F81A885B985BB2394F48DE20E94021414
:1024B0008E819F81A885B985B095A09590958195CD
:1024C0009F4FAF4FBF4F8E839F83A887B9878A8165
:1024D0009B81AC81BD812AE030E040E050E0BC014E
:1024E000CD010E94361A7B018C018E819F81A885C7
:1024F000B9852AE030E040E050E0BC01CD010E9407
:10250000831ADC01CB018E0D9F1DA01FB11F8A8392
:102510009B83AC83BD838E819F81A885B9852AE08A
:1025200030E040E050E0BC01CD010E94831ADA01A6
:10253000C9018E839F83A887B98789818F5F89832B
:102540008E819F81A885B9850097A105B10509F005
:10255000BECF8A819B81AC81BD812AE030E040E022
:1025600050E0BC01CD010E94611ADC01CB01805D0D
:102570000E9402148A819B81AC81BD812AE030E0F7
:1025800040E050E0BC01CD010E94611ADA01C901AE
:102590008A839B83AC83BD838981815089838981B0
:1025A0008823B9F629960FB6F894DEBF0FBECDBFCB
:1025B000CF91DF911F910F91FF90EF900895DF93DE
:1025C000CF9300D0CDB7DEB78A83198206C088E1E9
:1025D0000E94171389818F5F898399818A81981757
:1025E000B0F30F900F90CF91DF910895DF93CF93C9
:1025F00000D0CDB7DEB78A83198206C08CE10E9475
:10260000171389818F5F898399818A819817B0F325
:102610000F900F90CF91DF910895DF93CF93CDB7B7
:10262000DEB782E00E941713CF91DF910895DF9308
:10263000CF93CDB7DEB72F970FB6F894DEBF0FBE9E
:10264000CDBF8F8781E060E040E00E94C50D81E052
:1026500061E040E00E94C50D8F85982F917080E069
:1026600060E0492F0E94C50D8F858695982F917047
:1026700080E061E0492F0E94C50D8F858695869583
:10268000982F917080E062E0492F0E94C50D8F85E0
:10269000869586958695982F917080E063E0492F06
:1026A0000E94C50D8F8582958F70982F917080E064
:1026B00064E0492F0E94C50D8F85829586958770AD
:1026C000982F917080E065E0492F0E94C50D8F859D
:1026D0008295869586958370982F917080E066E04C
:1026E000492F0E94C50D8F85982F991F9927991FF3
:1026F00080E067E0492F0E94C50D81E062E041E083
:102700000E94C50D80E090E0A0E0B0E48B879C873C
:10271000AD87BE876B857C858D859E8520E030E00A
:102720004AEF54E40E941F02DC01CB018F8398879B
:10273000A987BA876F81788589859A8520E030E0FE
:1027400040E85FE30E94790388232CF481E090E065
:102750009E838D833FC06F81788589859A8520E02F
:102760003FEF4FE757E40E94190318164CF56B85AD
:102770007C858D859E8520E030E040E251E40E941A
:102780001F02DC01CB01BC01CD010E944900DC012C
:10279000CB019E838D830FC088EC90E09C838B835C
:1027A0008B819C810197F1F79C838B838D819E8126
:1027B00001979E838D838D819E81009769F714C058
:1027C0006F81788589859A850E944900DC01CB015B
:1027D0009E838D838D819E819A83898389819A814D
:1027E0000197F1F79A83898381E062E040E00E94DB
:1027F000C50D2F960FB6F894DEBF0FBECDBFCF919B
:10280000DF910895DF93CF93CDB7DEB72F970FB643
:10281000F894DEBF0FBECDBF8F8781E060E041E05E
:102820000E94C50D81E061E040E00E94C50D8F85EA
:10283000982F917080E060E0492F0E94C50D8F8530
:102840008695982F917080E061E0492F0E94C50D18
:102850008F8586958695982F917080E062E0492F4C
:102860000E94C50D8F85869586958695982F9170C7
:1028700080E063E0492F0E94C50D8F8582958F709F
:10288000982F917080E064E0492F0E94C50D8F85DC
:10289000829586958770982F917080E065E0492F2A
:1028A0000E94C50D8F858295869586958370982F99
:1028B000917080E066E0492F0E94C50D8F85982FAA
:1028C000991F9927991F80E067E0492F0E94C50D45
:1028D00081E062E041E00E94C50D80E090E0A0E070
:1028E000B0E48B879C87AD87BE876B857C858D85A3
:1028F0009E8520E030E04AEF54E40E941F02DC0194
:10290000CB018F839887A987BA876F81788589855E
:102910009A8520E030E040E85FE30E947903882355
:102920002CF481E090E09E838D833FC06F81788599
:1029300089859A8520E03FEF4FE757E40E9419030D
:1029400018164CF56B857C858D859E8520E030E0E2
:1029500040E251E40E941F02DC01CB01BC01CD0129
:102960000E944900DC01CB019E838D830FC088EC5F
:1029700090E09C838B838B819C810197F1F79C83F2
:102980008B838D819E8101979E838D838D819E8116
:10299000009769F714C06F81788589859A850E94B0
:1029A0004900DC01CB019E838D838D819E819A83BA
:1029B000898389819A810197F1F79A83898381E0DC
:1029C00062E040E00E94C50D2F960FB6F894DEBF7E
:1029D0000FBECDBFCF91DF910895DF93CF93CDB7D9
:1029E000DEB781E060E040E00E94B50B81E061E08D
:1029F00040E00E94B50B81E062E040E00E94B50B30
:102A000080E060E040E00E94B50B80E061E040E0E3
:102A10000E94B50B80E062E040E00E94B50B80E0D0
:102A200063E040E00E94B50B80E064E040E00E947B
:102A3000B50B80E065E040E00E94B50B80E066E009
:102A400040E00E94B50B80E067E040E00E94B50BDB
:102A5000CF91DF910895DF93CF93CDB7DEB727975E
:102A60000FB6F894DEBF0FBECDBF9C838B836D8302
:102A70004E832F838D81882F90E0880F991F880FB8
:102A8000991F880F991F8A838A8180648A838A812B
:102A90000E94171319820EC08981282F30E08B8184
:102AA0009C81FC01E20FF31F80810E940214898146
:102AB0008F5F89838981883078F38E816F810E944E
:102AC000C1118D810E94981127960FB6F894DEBF30
:102AD0000FBECDBFCF91DF910895DF93CF93CDB7D8
:102AE000DEB7AFE4B0E0EFE4F0E080818E7F8C935E
:102AF000AFE4B0E0EFE4F0E0808182608C93AEE47C
:102B0000B0E0EEE4F0E0808188608C93AEE4B0E069
:102B1000EEE4F0E0808180618C93AFE4B0E0EFE41C
:102B2000F0E080818F7B8C93AFE4B0E0EFE4F0E0E5
:102B3000808180688C93AEE4B0E0EEE4F0E08081C8
:102B40008E7F8C93AEE4B0E0EEE4F0E080818260B2
:102B50008C93AEE4B0E0EEE4F0E080818B7F8C9368
:102B6000A9E5B0E0E9E5F0E080818F7D8C93A9E5EF
:102B7000B0E0E9E5F0E080818B7F8C93A9E5B0E0DF
:102B8000E9E5F0E080818F7E8C93A9E5B0E0E9E58E
:102B9000F0E08081877F8C93CF91DF910895DF9360
:102BA000CF9300D0CDB7DEB79A838983E6E4F0E017
:102BB00089819A81918380830F900F90CF91DF91CB
:102BC0000895DF93CF9300D0CDB7DEB79A83898382
:102BD000EAE4F0E089819A81918380830F900F90DD
:102BE000CF91DF910895DF93CF93CDB7DEB7EAE4BD
:102BF000F0E080819181CF91DF910895DF93CF93B1
:102C0000CDB7DEB7AEE4B0E0EEE4F0E080818068FE
:102C10008C93AEE4B0E0EEE4F0E0808180648C93CD
:102C2000A9E5B0E0E9E5F0E0808180628C93CF9186
:102C3000DF910895DF93CF9300D000D0CDB7DEB7FA
:102C40008A838A81282F30E03C832B838B819C816F
:102C50008130910531F02B813C812230310549F0E2
:102C600010C0AEE4B0E0EEE4F0E0808180648C93CC
:102C70000AC0AEE4B0E0EEE4F0E080818F7B8C939C
:102C800002C082E0898389810F900F900F900F908E
:102C9000CF91DF910895DF93CF93CDB7DEB7E6E410
:102CA000F0E080819181CF91DF910895DF93CF9300
:102CB000CDB7DEB7A9E5B0E0E9E5F0E0808180625C
:102CC0008C93CF91DF910895DF93CF93CDB7DEB78B
:102CD000A9E5B0E0E9E5F0E080818F7D8C93CF91AC
:102CE000DF910895DF93CF9300D0CDB7DEB79A83FD
:102CF000898389819A81009731F089819A819093A3
:102D0000CB028093CA020F900F90CF91DF9108956C
:102D1000DF93CF93CDB7DEB7AAE2B0E0EAE2F0E00E
:102D200080818B7F8C93E0E4F0E086E88083E9E2A9
:102D3000F0E083E38083AAE2B0E0EAE2F0E08081A1
:102D400080618C93AAE2B0E0EAE2F0E080818860E2
:102D50008C93CF91DF910895DF93CF930F92CDB7EE
:102D6000DEB78983EBE2F0E08081829586958770FB
:102D7000882F90E0817090700097A1F3ECE2F0E072
:102D8000898180830F90CF91DF910895DF93CF9356
:102D9000CDB7DEB7EBE2F0E080818823DCF7ECE230
:102DA000F0E08081CF91DF910895DF93CF9300D041
:102DB000CDB7DEB79A8389830AC0E981FA81808121
:102DC0000E94AC1689819A8101969A838983E98150
:102DD000FA818081882389F70F900F90CF91DF913E
:102DE0000895DF93CF93CDB7DEB729970FB6F89448
:102DF000DEBF0FBECDBF1A8219828AE690E00E9424
:102E0000D51687E790E00E94D51685EA90E00E94EB
:102E1000D51681EE90E00E94D5160E94C6168A83D0
:102E20008A81282F30E039872887888599858233E1
:102E3000910509F4B8C0288539852333310534F468
:102E4000888599858133910571F08EC128853985F2
:102E50002333310509F447C1888599858433910569
:102E600009F464C181C18EEF90E00E94D5168AE614
:102E700090E00E94D51682E191E00E94D51688E28A
:102E800091E00E94D51681EE90E00E94D5160E9436
:102E9000C61689838981282F30E03F832E838E8157
:102EA0009F818233910589F12E813F812333310542
:102EB00034F48E819F818133910569F055C12E8153
:102EC0003F8123333105D9F18E819F818433910570
:102ED00009F44FC049C18FE491E00E94D5160E94C9
:102EE000C61689838981813331F482E060E041E054
:102EF0000E94F60939C18981803309F035C182E029
:102F000060E040E00E94F6092FC18FE491E00E944A
:102F1000D5160E94C61689838981813331F482E0F7
:102F200061E041E00E94F6091FC18981803309F008
:102F30001BC182E061E040E00E94F60915C18FE408
:102F400091E00E94D5160E94C6168983898181333B
:102F500031F482E063E041E00E94F60905C1898115
:102F6000803309F001C182E063E040E00E94F6098D
:102F7000FBC08FE491E00E94D5160E94C61689839B
:102F80008981813331F482E062E041E00E94F609F8
:102F9000EBC08981803309F0E7C082E062E040E065
:102FA0000E94F609E1C08DE591E00E94D5168AE6FF
:102FB00090E00E94D51682E191E00E94D51688E249
:102FC00091E00E94D5168CE691E00E94D5160E94F1
:102FD000C61689838981282F30E03D832C838C811C
:102FE0009D818233910589F12C813D812333310507
:102FF00034F48C819D818133910569F0B5C02C81B9
:103000003D8123333105D9F18C819D818433910534
:1030100009F44FC0A9C08FE491E00E94D5160E9428
:10302000C61689838981813331F482E064E041E00E
:103030000E94F60999C08981803309F095C082E029
:1030400064E040E00E94F6098FC08FE491E00E94A6
:10305000D5160E94C61689838981813331F482E0B6
:1030600065E041E00E94F6097FC08981803309F064
:103070007BC082E065E040E00E94F60975C08FE405
:1030800091E00E94D5160E94C616898389818133FA
:1030900031F482E067E041E00E94F60965C0898171
:1030A000803309F061C082E067E040E00E94F609E9
:1030B0005BC08FE491E00E94D5160E94C6168983FA
:1030C0008981813331F482E066E041E00E94F609B3
:1030D0004BC08981803309F047C082E066E040E060
:1030E0000E94F60941C085E891E00E94D51681E969
:1030F00091E00E94D51682EA91E00E94D5160E94C6
:10310000C61689838981813339F40E94201A84EBA1
:1031100091E00E94D51628C08981803329F50E944C
:103120002B1A8CEC91E00E94D5161EC084EE91E023
:103130000E94D5160E94C6168053898389818A30E1
:1031400078F489E092E00E94D51689810E940B07ED
:103150008FE192E00E94D51689810E945C0704C02D
:1031600089E392E00E94D5168A81853309F045CE25
:1031700029960FB6F894DEBF0FBECDBFCF91DF9179
:103180000895DF93CF93CDB7DEB782E060E041E0F2
:103190000E94B10882E061E041E00E94B10882E053
:1031A00062E041E00E94B10882E063E041E00E94F9
:1031B000B10882E064E041E00E94B10882E065E08D
:1031C00041E00E94B10882E066E041E00E94B1085F
:1031D00082E067E041E00E94B1080E940E1A0E945E
:1031E000201ACF91DF910895DF93CF93CDB7DEB74B
:1031F00062970FB6F894DEBF0FBECDBF1A8A188A49
:103200001F8683E060E041E00E94B50B83E061E04F
:1032100040E00E94B50B0E9488168AEF90E00E9461
:10322000D51A873549F08AEF90E067E50E94DD1AEC
:103230000E94A9070E942B080E94C1180E94F71043
:103240000E948E1180E592E00E94A511188A88895B
:10325000882399F088E592E00E94D51689E692E0ED
:103260000E94D51693E38889292F281B822F0E945C
:10327000AC1683E792E00E94D51689E792E00E949F
:10328000D516CE0142960E94A3058F878F85813087
:1032900041F48BE892E00E94D5168A890E949A0632
:1032A0008F8788898F5F888B8889833018F48F8512
:1032B000813069F68F85813049F40E948E1180EA51
:1032C00092E00E94A5110E94F116BACF198A8DEAE8
:1032D00092E00E94D5168989843640F0898994E667
:1032E000692F0E94551A805D0E94AC1689898A3028
:1032F00068F0898994E6692F0E94551A892F9AE00F
:10330000692F0E94551A805D0E94AC16898994E647
:10331000692F0E94551A892F9AE0692F0E94551A29
:10332000892F805D0E94AC1689EB92E00E94D51631
:1033300080E090E0AAE7B4E48B879C87AD87BE87E6
:103340006B857C858D859E8520E030E04AEF54E4D6
:103350000E941F02DC01CB018F839887A987BA875F
:103360006F81788589859A8520E030E040E85FE3C9
:103370000E94790388232CF481E090E09E838D8362
:103380003FC06F81788589859A8520E03FEF4FE7C0
:1033900057E40E94190318164CF56B857C858D85C2
:1033A0009E8520E030E040E251E40E941F02DC01F3
:1033B000CB01BC01CD010E944900DC01CB019E8301
:1033C0008D830FC088EC90E09C838B838B819C81E4
:1033D0000197F1F79C838B838D819E8101979E835A
:1033E0008D838D819E81009769F714C06F817885E8
:1033F00089859A850E944900DC01CB019E838D83DB
:103400008D819E819A83898389819A810197F1F7C1
:103410009A83898389898F5F898B59CFDF93CF9373
:10342000CDB7DEB70E946D1580E29EE40E94CF15F5
:1034300083E065E041E00E94B108CF91DF910895FB
:10344000DF93CF93CDB7DEB780ED97E00E94E11513
:10345000CF91DF910895DF93CF93CDB7DEB788EE9C
:1034600093E00E94E115CF91DF910895629FD00112
:10347000739FF001829FE00DF11D649FE00DF11D2F
:10348000929FF00D839FF00D749FF00D659FF00DDE
:103490009927729FB00DE11DF91F639FB00DE11DCB
:1034A000F91FBD01CF0111240895991B79E004C0D3
:1034B000991F961708F0961B881F7A95C9F7809573
:1034C0000895A1E21A2EAA1BBB1BFD010DC0AA1F65
:1034D000BB1FEE1FFF1FA217B307E407F50720F07D
:1034E000A21BB30BE40BF50B661F771F881F991FF8
:1034F0001A9469F760957095809590959B01AC0141
:10350000BD01CF01089597FB092E05260ED057FD6A
:1035100004D0D7DF0AD0001C38F450954095309580
:1035200021953F4F4F4F5F4F0895F6F79095809547
:10353000709561957F4F8F4F9F4F08952F923F92C7
:103540004F925F926F927F928F929F92AF92BF92B3
:10355000CF92DF92EF92FF920F931F93CF93DF935F
:10356000CDB7DEB7CA1BDB0B0FB6F894DEBF0FBEBC
:10357000CDBF09942A88398848885F846E847D8409
:103580008C849B84AA84B984C884DF80EE80FD800B
:103590000C811B81AA81B981CE0FD11D0FB6F89481
:1035A000DEBF0FBECDBFED010895E199FECF9FBBF9
:1035B0008EBBE09A99278DB30895262FE199FECF0F
:1035C0009FBB8EBB2DBB0FB6F894E29AE19A0FBE5B
:0835D00001960895F894FFCF65
:1035D800313233340075736572000A6F7074696F25
:1035E8006E2069733A20000A312D6C696768746926
:1035F8006E672073797374656D20202020322D61E9
:10360800697220636F6E646974696F6E2073797371
:1036180074656D20000A332D646F6F72207379739F
:1036280074656D2020202020342D6368616E6765E5
:103638002075736572206E616D6520616E642070FF
:10364800617373776F7264200A352D657869742009
:10365800000A506C656173652043686F6F7365205D
:10366800796F7572206F7074696F6E3A20000A6CFA
:1036780069676874696E672073797374656D206F04
:103688006E000A312D6D617374657220202020321E
:103698002D6C6976696E67000A332D6261746872F1
:1036A8006F6F6D202020342D6B69746368656E0A16
:1036B800352D4D61696E204F7074696F6E73000A05
:1036C800312D4F4E202020302D4F6666000A61694B
:1036D800722073797374656D206F6E000A63686F6A
:1036E8006F736520796F757220726F6F6D20706CC3
:1036F8006561733A000A4F7074696F6E73203A20DF
:1037080000312D4F70656E202020302D436C6F7373
:1037180065000A456E74657220746865207374616B
:1037280074653A000A54686520646F6F7220697383
:10373800206F70656E6564206E6F77000A54686547
:1037480020646F6F7220697320636C6F73656420E7
:103758006E6F77000A456E7465722074686520750F
:10376800736572206E756D62657220666F726D206A
:103778003020746F2039203A000A456E7465722033
:10378800746865206E6577206E616D65203A000A61
:10379800456E74657220746865206E657720506187
:1037A8007373776F7264203A000A496E76616C69A8
:1037B800642075736572206E756D626572203A00BB
:1037C80057656C636F6D65000A57726F6E6720747A
:1037D800727920616761696E000A72656D696E654C
:1037E800203A002054727973000A456E746572207D
:1037F80075736572206E616D653A000A456E746571
:1038080072207468652070617373776F72643A0010
:10381800636F727265637420706173730077616996
:10382800742072656D61696E00666F722031303088
:0A3838003000000000000000000056
:00000001FF
